:100000000C945D000C9485000C9485000C94850084
:100010000C9485000C9485000C9485000C9485004C
:100020000C9485000C9485000C9485000C9485003C
:100030000C9485000C9485000C9485000C9485002C
:100040000C9486020C9485000C94F6020C94D00259
:100050000C9485000C9485000C9485000C9485000C
:100060000C9485000C94850000000008000201003B
:100070000003040700000000000000000000000072
:10008000250028002B0000000000240027002A0083
:10009000040404040404040402020202020203032E
:1000A0000303030301020408102040800102040836
:1000B0001020010204081020280311241FBECFEFD6
:1000C000D8E0DEBFCDBF11E0A0E0B1E0ECE4FEE09F
:1000D00002C005900D92A432B107D9F721E0A4E245
:1000E000B1E001C01D92A83EB207E1F710E0CDE5F6
:1000F000D0E004C02197FE010E944E04CC35D10708
:10010000C9F70E9443040C9424070C94000090E06B
:10011000FC01EC55FF4F2491FC01E057FF4F849107
:10012000882399F090E0880F991FFC01EA57FF4F50
:10013000A591B491FC01E458FF4F859194918FB73C
:10014000F894EC91E22BEC938FBF089590E0FC01C2
:10015000E859FF4F3491FC01EC55FF4F2491FC010D
:10016000E057FF4FE491EE2309F43BC0332339F10C
:10017000333091F038F43130A9F0323001F584B5E4
:100180008F7D12C0373091F03830A1F03430B9F49F
:10019000809180008F7D03C0809180008F77809355
:1001A00080000DC084B58F7784BD09C08091B000F8
:1001B0008F7703C08091B0008F7D8093B000F0E016
:1001C000EE0FFF1FE458FF4FA591B4918FB7F8943D
:1001D000EC91611103C020952E2301C02E2B2C938E
:1001E0008FBF0895CF92DF92EF92FF920F931F93EC
:1001F000CF93DF936C017A018B01C0E0D0E0CE1584
:10020000DF0589F0D8016D918D01D601ED91FC914A
:100210000190F081E02DC6010995892B11F47E0132
:1002200002C02196ECCFC701DF91CF911F910F91B2
:10023000FF90EF90DF90CF900895FC01538D448D97
:10024000252F30E0842F90E0821B930B541710F081
:10025000CF96089501970895FC01918D828D98178E
:1002600061F0828DDF01A80FB11D5D968C91928D9A
:100270009F5F9F73928F90E008958FEF9FEF089597
:10028000FC01918D828D981731F0828DE80FF11D60
:10029000858D90E008958FEF9FEF0895FC01918D7B
:1002A000228D892F90E0805C9F4F821B91098F7374
:1002B00099270895FC01848DDF01A80FB11DA35A71
:1002C000BF4F2C91848D90E001968F739927848F76
:1002D000A689B7892C93A089B1898C9180648C936D
:1002E000938D848D981306C00288F389E02D808158
:1002F0008F7D80830895EF92FF920F931F93CF938A
:10030000DF93EC0181E0888F9B8D8C8D981305C065
:10031000E889F989808185FD24C0F62E0B8D10E0D7
:100320000F5F1F4F0F731127E02E8C8DE8120CC04A
:100330000FB607FCFACFE889F989808185FFF5CFF0
:10034000CE010E945A01F1CF8B8DFE01E80FF11D05
:10035000E35AFF4FF0820B8FEA89FB89808180622C
:1003600007C0EE89FF896083E889F989808180640C
:10037000808381E090E0DF91CF911F910F91FF90FA
:10038000EF900895CF93DF93EC01888D8823C9F017
:10039000EA89FB89808185FD05C0A889B9898C918E
:1003A00086FD0FC00FB607FCF5CF808185FFF2CF29
:1003B000A889B9898C9185FFEDCFCE010E945A01A1
:1003C000E7CFDF91CF910895CF93DF93EC0160E009
:1003D0008E810E94A60061E08E810E94A60060E0EE
:1003E0008E810E94A6008BE891E00197F1F7DF91E2
:1003F000CF910895CF92DF92EF92FF920F931F93C8
:10040000CF93DF937C016C0187E0C80ED11CC0E064
:10041000D0E0062F10E0B8010C2E02C0759567954C
:100420000A94E2F76170F60181916F010E94A600C3
:100430002196C430D10579F7C701DF91CF911F9183
:100440000F91FF90EF90DF90CF900C94E401CF924A
:10045000DF92EF92FF920F931F93CF93DF93EC0104
:10046000F62E642F8C810E94A6008D818F3F19F09B
:1004700060E00E94A6008F850F2D10E084FF25C04C
:100480006E0187E0C80ED11CE12CF12CB8010E2CB6
:1004900002C0759567950A94E2F76170F601819143
:1004A0006F010E94A600FFEFEF1AFF0A88E0E8162E
:1004B000F10461F7CE01DF91CF911F910F91FF9071
:1004C000EF90DF90CF900C94E401B80184E0759533
:1004D00067958A95E1F7CE010E94FA016F2DCE0152
:1004E000DF91CF911F910F91FF90EF90DF90CF9010
:1004F0000C94FA0141E00E94270281E090E0089507
:10050000089580E090E008950E9454041F920F9295
:100510000FB60F9211242F933F938F939F93AF9316
:10052000BF938091290190912A01A0912B01B09154
:100530002C013091280123E0230F2D3720F4019660
:10054000A11DB11D05C026E8230F0296A11DB11DF6
:10055000209328018093290190932A01A0932B01D5
:10056000B0932C018091240190912501A091260146
:10057000B09127010196A11DB11D80932401909394
:100580002501A0932601B0932701BF91AF919F91C0
:100590008F913F912F910F900FBE0F901F90189544
:1005A0001F920F920FB60F9211242F933F934F93E8
:1005B0005F936F937F938F939F93AF93BF93EF93CB
:1005C000FF938DE291E00E945A01FF91EF91BF915C
:1005D000AF919F918F917F916F915F914F913F91DB
:1005E0002F910F900FBE0F901F9018951F920F9292
:1005F0000FB60F9211242F938F939F93EF93FF9336
:10060000E0913D01F0913E018081E0914301F09144
:10061000440182FD12C09081809146018F5F8F73EB
:1006200020914701821751F0E0914601F0E0E35D2F
:10063000FE4F958F8093460101C08081FF91EF911D
:100640009F918F912F910F900FBE0F901F90189533
:10065000CF93DF931092300110922F0188EE93E038
:10066000A0E0B0E08093310190933201A093330178
:10067000B093340184E091E090932E0180932D019A
:1006800085EC90E090933A018093390184EC90E0FE
:1006900090933C0180933B0180EC90E090933E016D
:1006A00080933D0181EC90E09093400180933F0165
:1006B00082EC90E0909342018093410186EC90E0BF
:1006C0009093440180934301109246011092470198
:1006D00010924801109249011092CD011092CC0164
:1006E00086E191E09093CB018093CA0187E08093EB
:1006F000CE018FEF8093CF0188E08093D00189E015
:100700008093D1018AE08093D2018BE08093D30162
:100710008CE08093D4011092D5011092D6011092F2
:10072000D7011092D8011092D90181E08093DD01A8
:100730001092DE0180E48093DF0180E18093E0018C
:1007400080E58093E10187E00E9487008091CF01DE
:100750008F3F11F00E9487008091D0010E94870096
:10076000C0E0D0E08091D90184FD03C084E090E036
:1007700002C088E090E0C817D90744F4FE01E653B0
:10078000FE4F87810E9487002196ECCF8BE39DE08E
:100790000197F1F760E08091CE010E94A60060E031
:1007A0008091D0010E94A6008091CF018F3F19F067
:1007B00060E00E94A6006091D90164FD20C063E062
:1007C0008AEC91E00E94FA01CBE4D6E4CE010197D5
:1007D000F1F763E08AEC91E00E94FA012197F1F7CA
:1007E00063E08AEC91E00E94FA0183E592E00197D0
:1007F000F1F762E08AEC91E00E94FA011EC06062AB
:1008000040E08AEC91E00E9427028BE496E4019795
:10081000F1F76091D901606240E08AEC91E00E94BA
:10082000270283E592E00197F1F76091D9016062B8
:1008300040E08AEC91E00E9427026091D901606259
:1008400040E08AEC91E00E94270284E08093DA0184
:1008500040E06CE08AEC91E00E94270240E061E019
:100860008AEC91E00E9427028BE39FE10197F1F768
:1008700082E08093DB0140E066E08AEC91E0DF916A
:10088000CF910C9427028EE191E09F938F930E9469
:1008900059040F900F9080E090E00895EE0FFF1F35
:1008A0000590F491E02D099481E090E0F8940C9487
:1008B0002407A0E0B0E0EFE5F4E00C94FD06AE0103
:1008C0004B5F5F4FFA0161917191AF018091E4013B
:1008D0009091E5010E946F04E2E00C941907ACE0EE
:1008E000B0E0E5E7F4E00C94ED067C016B018A01D1
:1008F000FC0117821682838181FFBDC1CE01019662
:100900004C01F7019381F60193FD859193FF81914D
:100910006F01882309F4ABC1853239F493FD8591C9
:1009200093FF81916F01853229F4B70190E00E9415
:100930005706E7CF512C312C20E02032A0F48B3227
:1009400069F030F4803259F0833269F420612CC0B0
:100950008D3239F0803339F4216026C02260246062
:1009600023C0286021C027FD27C030ED380F3A3062
:1009700078F426FF06C0FAE05F9E300D1124532E56
:1009800013C08AE0389E300D1124332E20620CC033
:100990008E3221F426FD6BC1206406C08C3611F422
:1009A000206802C0883641F4F60193FD859193FFDB
:1009B00081916F018111C1CF982F9F7D9554933004
:1009C00028F40C5F1F4FFFE3F9830DC0833631F02D
:1009D000833771F0833509F05BC022C0F801808154
:1009E00089830E5F1F4F44244394512C540115C03A
:1009F0003801F2E06F0E711CF801A080B18026FF73
:100A000003C0652D70E002C06FEF7FEFC5012C873A
:100A10000E944C062C0183012C852F77222E17C0B3
:100A20003801F2E06F0E711CF801A080B18026FF42
:100A300003C0652D70E002C06FEF7FEFC5012C870A
:100A40000E9441062C012C852068222E830123FC64
:100A50001BC0832D90E048165906B0F4B70180E220
:100A600090E00E9457063A94F4CFF50127FC859157
:100A700027FE81915F01B70190E00E945706311077
:100A80003A94F1E04F1A51084114510471F7E5C04E
:100A9000843611F0893639F5F80127FF07C06081E7
:100AA0007181828193810C5F1F4F08C060817181C9
:100AB000072E000C880B990B0E5F1F4F2F76722E9E
:100AC00097FF09C090958095709561957F4F8F4FE6
:100AD0009F4F2068722E2AE030E0A4010E948F060A
:100AE000A82EA81844C0853729F42F7EB22E2AE0FC
:100AF00030E025C0F22FF97FBF2E8F36C1F018F4F9
:100B0000883579F0B4C0803719F0883721F0AFC04C
:100B10002F2F2061B22EB4FE0DC08B2D8460B82E15
:100B200009C024FF0AC09F2F9660B92E06C028E096
:100B300030E005C020E130E002C020E132E0F80101
:100B4000B7FE07C060817181828193810C5F1F4F66
:100B500006C06081718180E090E00E5F1F4FA401AC
:100B60000E948F06A82EA818FB2DFF777F2E76FEF9
:100B70000BC0372D3E7FA51450F474FE0AC072FCE2
:100B800008C0372D3E7E05C0BA2C372D03C0BA2CC5
:100B900001C0B52C34FF0DC0FE01EA0DF11D8081AE
:100BA000803311F4397E09C032FF06C0B394B39488
:100BB00004C0832F867809F0B39433FD13C030FF4F
:100BC00006C05A2CB31418F4530C5B18B32CB3148E
:100BD00068F4B70180E290E03C870E945706B39426
:100BE0003C85F5CFB31410F43B1801C0312C34FF11
:100BF00012C0B70180E390E03C870E9457063C8515
:100C000032FF17C031FD03C088E790E002C088E5DD
:100C100090E0B7010CC0832F867859F031FF02C0F5
:100C20008BE201C080E237FD8DE2B70190E00E94C7
:100C30005706A51438F4B70180E390E00E945706E8
:100C40005A94F7CFAA94F401EA0DF11D8081B701FF
:100C500090E00E945706A110F5CF332009F451CE41
:100C6000B70180E290E00E9457063A94F6CFF70170
:100C70008681978102C08FEF9FEF2C96E2E10C9462
:100C80000907FC010590615070400110D8F780956C
:100C900090958E0F9F1F0895FC0161507040019048
:100CA0000110D8F7809590958E0F9F1F08950F9390
:100CB0001F93CF93DF93FB01238121FD03C08FEFAF
:100CC0009FEF28C022FF16C04681578124813581BD
:100CD0004217530744F4A081B1819D012F5F3F4F1C
:100CE000318320838C93268137812F5F3F4F378359
:100CF000268310C0EB01092F182F0084F185E02D09
:100D00000995892BE1F68E819F8101969F838E83C1
:100D1000812F902FDF91CF911F910F910895FA01AC
:100D2000AA27283051F1203181F1E8946F936E7F2A
:100D30006E5F7F4F8F4F9F4FAF4FB1E03ED0B4E01B
:100D40003CD0670F781F891F9A1FA11D680F791F5C
:100D50008A1F911DA11D6A0F711D811D911DA11D6D
:100D600020D009F468943F912AE0269F112430197D
:100D7000305D3193DEF6CF010895462F4770405D18
:100D80004193B3E00FD0C9F7F6CF462F4F70405DC7
:100D90004A3318F0495D31FD4052419302D0A9F722
:100DA000EACFB4E0A6959795879577956795BA951C
:100DB000C9F700976105710508959B01AC010A2EE2
:100DC00006945795479537952795BA95C9F7620FB9
:100DD000731F841F951FA01D08952F923F924F925D
:100DE0005F926F927F928F929F92AF92BF92CF92BB
:100DF000DF92EF92FF920F931F93CF93DF93CDB7C4
:100E0000DEB7CA1BDB0B0FB6F894DEBF0FBECDBF3B
:100E100009942A88398848885F846E847D848C840C
:100E20009B84AA84B984C884DF80EE80FD800C8115
:100E30001B81AA81B981CE0FD11D0FB6F894DEBFF8
:0C0E40000FBECDBFED010895F894FFCF68
:100E4C00000000007B01F2001D01C2014E012C01CB
:100E5C004001000000007A02F200810280026173FE
:040E6C0064660000B8
:00000001FF
